{
	"contracts/Struct.sol": {
		"Struct": {
			"abi": [
				{
					"inputs": [
						{
							"internalType": "string",
							"name": "_text",
							"type": "string"
						}
					],
					"name": "create",
					"outputs": [],
					"stateMutability": "nonpayable",
					"type": "function"
				},
				{
					"inputs": [
						{
							"internalType": "uint256",
							"name": "_index",
							"type": "uint256"
						}
					],
					"name": "get",
					"outputs": [
						{
							"internalType": "string",
							"name": "text",
							"type": "string"
						},
						{
							"internalType": "bool",
							"name": "computed",
							"type": "bool"
						}
					],
					"stateMutability": "view",
					"type": "function"
				},
				{
					"inputs": [
						{
							"internalType": "uint256[]",
							"name": "_arr",
							"type": "uint256[]"
						}
					],
					"name": "h",
					"outputs": [
						{
							"internalType": "uint256[]",
							"name": "",
							"type": "uint256[]"
						}
					],
					"stateMutability": "pure",
					"type": "function"
				},
				{
					"inputs": [
						{
							"internalType": "uint256",
							"name": "",
							"type": "uint256"
						}
					],
					"name": "todos",
					"outputs": [
						{
							"internalType": "string",
							"name": "text",
							"type": "string"
						},
						{
							"internalType": "bool",
							"name": "compoluted",
							"type": "bool"
						}
					],
					"stateMutability": "view",
					"type": "function"
				}
			],
			"devdoc": {
				"kind": "dev",
				"methods": {},
				"version": 1
			},
			"evm": {
				"assembly": "    /* \"contracts/Struct.sol\":83:592  contract Struct{... */\n  mstore(0x40, 0x80)\n  callvalue\n  dup1\n  iszero\n  tag_1\n  jumpi\n  0x00\n  dup1\n  revert\ntag_1:\n  pop\n  dataSize(sub_0)\n  dup1\n  dataOffset(sub_0)\n  0x00\n  codecopy\n  0x00\n  return\nstop\n\nsub_0: assembly {\n        /* \"contracts/Struct.sol\":83:592  contract Struct{... */\n      mstore(0x40, 0x80)\n      callvalue\n      dup1\n      iszero\n      tag_1\n      jumpi\n      0x00\n      dup1\n      revert\n    tag_1:\n      pop\n      jumpi(tag_2, lt(calldatasize, 0x04))\n      shr(0xe0, calldataload(0x00))\n      dup1\n      0x40dcbb08\n      eq\n      tag_3\n      jumpi\n      dup1\n      0x9507d39a\n      eq\n      tag_4\n      jumpi\n      dup1\n      0xb6a46b3b\n      eq\n      tag_5\n      jumpi\n      dup1\n      0xbc8bc2b4\n      eq\n      tag_6\n      jumpi\n    tag_2:\n      0x00\n      dup1\n      revert\n        /* \"contracts/Struct.sol\":484:589  function h(uint256[] calldata _arr) public pure returns (uint256[] calldata){... */\n    tag_3:\n      tag_7\n      0x04\n      dup1\n      calldatasize\n      sub\n      dup2\n      add\n      swap1\n      tag_8\n      swap2\n      swap1\n      tag_9\n      jump\t// in\n    tag_8:\n      tag_10\n      jump\t// in\n    tag_7:\n      mload(0x40)\n      tag_11\n      swap3\n      swap2\n      swap1\n      tag_12\n      jump\t// in\n    tag_11:\n      mload(0x40)\n      dup1\n      swap2\n      sub\n      swap1\n      return\n        /* \"contracts/Struct.sol\":299:478  function get(uint256 _index) public view returns (string memory text, bool computed){... */\n    tag_4:\n      tag_13\n      0x04\n      dup1\n      calldatasize\n      sub\n      dup2\n      add\n      swap1\n      tag_14\n      swap2\n      swap1\n      tag_15\n      jump\t// in\n    tag_14:\n      tag_16\n      jump\t// in\n    tag_13:\n      mload(0x40)\n      tag_17\n      swap3\n      swap2\n      swap1\n      tag_18\n      jump\t// in\n    tag_17:\n      mload(0x40)\n      dup1\n      swap2\n      sub\n      swap1\n      return\n        /* \"contracts/Struct.sol\":200:293  function create(string calldata _text) public {... */\n    tag_5:\n      tag_19\n      0x04\n      dup1\n      calldatasize\n      sub\n      dup2\n      add\n      swap1\n      tag_20\n      swap2\n      swap1\n      tag_21\n      jump\t// in\n    tag_20:\n      tag_22\n      jump\t// in\n    tag_19:\n      stop\n        /* \"contracts/Struct.sol\":174:193  Todo[] public todos */\n    tag_6:\n      tag_23\n      0x04\n      dup1\n      calldatasize\n      sub\n      dup2\n      add\n      swap1\n      tag_24\n      swap2\n      swap1\n      tag_15\n      jump\t// in\n    tag_24:\n      tag_25\n      jump\t// in\n    tag_23:\n      mload(0x40)\n      tag_26\n      swap3\n      swap2\n      swap1\n      tag_18\n      jump\t// in\n    tag_26:\n      mload(0x40)\n      dup1\n      swap2\n      sub\n      swap1\n      return\n        /* \"contracts/Struct.sol\":484:589  function h(uint256[] calldata _arr) public pure returns (uint256[] calldata){... */\n    tag_10:\n        /* \"contracts/Struct.sol\":541:559  uint256[] calldata */\n      calldatasize\n      0x00\n        /* \"contracts/Struct.sol\":578:582  _arr */\n      dup4\n      dup4\n        /* \"contracts/Struct.sol\":570:582  return  _arr */\n      swap2\n      pop\n      swap2\n      pop\n        /* \"contracts/Struct.sol\":484:589  function h(uint256[] calldata _arr) public pure returns (uint256[] calldata){... */\n      swap3\n      pop\n      swap3\n      swap1\n      pop\n      jump\t// out\n        /* \"contracts/Struct.sol\":299:478  function get(uint256 _index) public view returns (string memory text, bool computed){... */\n    tag_16:\n        /* \"contracts/Struct.sol\":349:367  string memory text */\n      0x60\n        /* \"contracts/Struct.sol\":369:382  bool computed */\n      0x00\n        /* \"contracts/Struct.sol\":393:410  Todo storage todo */\n      dup1\n        /* \"contracts/Struct.sol\":413:418  todos */\n      0x00\n        /* \"contracts/Struct.sol\":419:425  _index */\n      dup5\n        /* \"contracts/Struct.sol\":413:426  todos[_index] */\n      dup2\n      sload\n      dup2\n      lt\n      tag_29\n      jumpi\n      tag_30\n      tag_31\n      jump\t// in\n    tag_30:\n    tag_29:\n      swap1\n      0x00\n      mstore\n      keccak256(0x00, 0x20)\n      swap1\n      0x02\n      mul\n      add\n        /* \"contracts/Struct.sol\":393:426  Todo storage todo = todos[_index] */\n      swap1\n      pop\n        /* \"contracts/Struct.sol\":444:448  todo */\n      dup1\n        /* \"contracts/Struct.sol\":444:453  todo.text */\n      0x00\n      add\n        /* \"contracts/Struct.sol\":455:459  todo */\n      dup2\n        /* \"contracts/Struct.sol\":455:470  todo.compoluted */\n      0x01\n      add\n      0x00\n      swap1\n      sload\n      swap1\n      0x0100\n      exp\n      swap1\n      div\n      0xff\n      and\n        /* \"contracts/Struct.sol\":436:471  return (todo.text, todo.compoluted) */\n      dup2\n      dup1\n      sload\n      tag_33\n      swap1\n      tag_34\n      jump\t// in\n    tag_33:\n      dup1\n      0x1f\n      add\n      0x20\n      dup1\n      swap2\n      div\n      mul\n      0x20\n      add\n      mload(0x40)\n      swap1\n      dup2\n      add\n      0x40\n      mstore\n      dup1\n      swap3\n      swap2\n      swap1\n      dup2\n      dup2\n      mstore\n      0x20\n      add\n      dup3\n      dup1\n      sload\n      tag_35\n      swap1\n      tag_34\n      jump\t// in\n    tag_35:\n      dup1\n      iszero\n      tag_36\n      jumpi\n      dup1\n      0x1f\n      lt\n      tag_37\n      jumpi\n      0x0100\n      dup1\n      dup4\n      sload\n      div\n      mul\n      dup4\n      mstore\n      swap2\n      0x20\n      add\n      swap2\n      jump(tag_36)\n    tag_37:\n      dup3\n      add\n      swap2\n      swap1\n      0x00\n      mstore\n      keccak256(0x00, 0x20)\n      swap1\n    tag_38:\n      dup2\n      sload\n      dup2\n      mstore\n      swap1\n      0x01\n      add\n      swap1\n      0x20\n      add\n      dup1\n      dup4\n      gt\n      tag_38\n      jumpi\n      dup3\n      swap1\n      sub\n      0x1f\n      and\n      dup3\n      add\n      swap2\n    tag_36:\n      pop\n      pop\n      pop\n      pop\n      pop\n      swap2\n      pop\n      swap3\n      pop\n      swap3\n      pop\n      pop\n        /* \"contracts/Struct.sol\":299:478  function get(uint256 _index) public view returns (string memory text, bool computed){... */\n      swap2\n      pop\n      swap2\n      jump\t// out\n        /* \"contracts/Struct.sol\":200:293  function create(string calldata _text) public {... */\n    tag_22:\n        /* \"contracts/Struct.sol\":256:261  todos */\n      0x00\n        /* \"contracts/Struct.sol\":267:285  Todo(_text, false) */\n      mload(0x40)\n      dup1\n      0x40\n      add\n      0x40\n      mstore\n      dup1\n        /* \"contracts/Struct.sol\":272:277  _text */\n      dup5\n      dup5\n        /* \"contracts/Struct.sol\":267:285  Todo(_text, false) */\n      dup1\n      dup1\n      0x1f\n      add\n      0x20\n      dup1\n      swap2\n      div\n      mul\n      0x20\n      add\n      mload(0x40)\n      swap1\n      dup2\n      add\n      0x40\n      mstore\n      dup1\n      swap4\n      swap3\n      swap2\n      swap1\n      dup2\n      dup2\n      mstore\n      0x20\n      add\n      dup4\n      dup4\n      dup1\n      dup3\n      dup5\n      calldatacopy\n      0x00\n      dup2\n      dup5\n      add\n      mstore\n      not(0x1f)\n      0x1f\n      dup3\n      add\n      and\n      swap1\n      pop\n      dup1\n      dup4\n      add\n      swap3\n      pop\n      pop\n      pop\n      pop\n      pop\n      pop\n      pop\n      dup2\n      mstore\n      0x20\n      add\n        /* \"contracts/Struct.sol\":279:284  false */\n      0x00\n        /* \"contracts/Struct.sol\":267:285  Todo(_text, false) */\n      iszero\n      iszero\n      dup2\n      mstore\n      pop\n        /* \"contracts/Struct.sol\":256:286  todos.push(Todo(_text, false)) */\n      swap1\n      dup1\n      0x01\n      dup2\n      sload\n      add\n      dup1\n      dup3\n      sstore\n      dup1\n      swap2\n      pop\n      pop\n      0x01\n      swap1\n      sub\n      swap1\n      0x00\n      mstore\n      keccak256(0x00, 0x20)\n      swap1\n      0x02\n      mul\n      add\n      0x00\n      swap1\n      swap2\n      swap1\n      swap2\n      swap1\n      swap2\n      pop\n      0x00\n      dup3\n      add\n      mload\n      dup2\n      0x00\n      add\n      swap1\n      dup2\n      tag_41\n      swap2\n      swap1\n      tag_42\n      jump\t// in\n    tag_41:\n      pop\n      0x20\n      dup3\n      add\n      mload\n      dup2\n      0x01\n      add\n      exp(0x0100, 0x00)\n      dup2\n      sload\n      dup2\n      0xff\n      mul\n      not\n      and\n      swap1\n      dup4\n      iszero\n      iszero\n      mul\n      or\n      swap1\n      sstore\n      pop\n      pop\n      pop\n        /* \"contracts/Struct.sol\":200:293  function create(string calldata _text) public {... */\n      pop\n      pop\n      jump\t// out\n        /* \"contracts/Struct.sol\":174:193  Todo[] public todos */\n    tag_25:\n      0x00\n      dup2\n      dup2\n      sload\n      dup2\n      lt\n      tag_43\n      jumpi\n      0x00\n      dup1\n      revert\n    tag_43:\n      swap1\n      0x00\n      mstore\n      keccak256(0x00, 0x20)\n      swap1\n      0x02\n      mul\n      add\n      0x00\n      swap2\n      pop\n      swap1\n      pop\n      dup1\n      0x00\n      add\n      dup1\n      sload\n      tag_45\n      swap1\n      tag_34\n      jump\t// in\n    tag_45:\n      dup1\n      0x1f\n      add\n      0x20\n      dup1\n      swap2\n      div\n      mul\n      0x20\n      add\n      mload(0x40)\n      swap1\n      dup2\n      add\n      0x40\n      mstore\n      dup1\n      swap3\n      swap2\n      swap1\n      dup2\n      dup2\n      mstore\n      0x20\n      add\n      dup3\n      dup1\n      sload\n      tag_46\n      swap1\n      tag_34\n      jump\t// in\n    tag_46:\n      dup1\n      iszero\n      tag_47\n      jumpi\n      dup1\n      0x1f\n      lt\n      tag_48\n      jumpi\n      0x0100\n      dup1\n      dup4\n      sload\n      div\n      mul\n      dup4\n      mstore\n      swap2\n      0x20\n      add\n      swap2\n      jump(tag_47)\n    tag_48:\n      dup3\n      add\n      swap2\n      swap1\n      0x00\n      mstore\n      keccak256(0x00, 0x20)\n      swap1\n    tag_49:\n      dup2\n      sload\n      dup2\n      mstore\n      swap1\n      0x01\n      add\n      swap1\n      0x20\n      add\n      dup1\n      dup4\n      gt\n      tag_49\n      jumpi\n      dup3\n      swap1\n      sub\n      0x1f\n      and\n      dup3\n      add\n      swap2\n    tag_47:\n      pop\n      pop\n      pop\n      pop\n      pop\n      swap1\n      dup1\n      0x01\n      add\n      0x00\n      swap1\n      sload\n      swap1\n      0x0100\n      exp\n      swap1\n      div\n      0xff\n      and\n      swap1\n      pop\n      dup3\n      jump\t// out\n        /* \"#utility.yul\":88:205   */\n    tag_51:\n        /* \"#utility.yul\":197:198   */\n      0x00\n        /* \"#utility.yul\":194:195   */\n      dup1\n        /* \"#utility.yul\":187:199   */\n      revert\n        /* \"#utility.yul\":211:328   */\n    tag_52:\n        /* \"#utility.yul\":320:321   */\n      0x00\n        /* \"#utility.yul\":317:318   */\n      dup1\n        /* \"#utility.yul\":310:322   */\n      revert\n        /* \"#utility.yul\":334:451   */\n    tag_53:\n        /* \"#utility.yul\":443:444   */\n      0x00\n        /* \"#utility.yul\":440:441   */\n      dup1\n        /* \"#utility.yul\":433:445   */\n      revert\n        /* \"#utility.yul\":457:574   */\n    tag_54:\n        /* \"#utility.yul\":566:567   */\n      0x00\n        /* \"#utility.yul\":563:564   */\n      dup1\n        /* \"#utility.yul\":556:568   */\n      revert\n        /* \"#utility.yul\":580:697   */\n    tag_55:\n        /* \"#utility.yul\":689:690   */\n      0x00\n        /* \"#utility.yul\":686:687   */\n      dup1\n        /* \"#utility.yul\":679:691   */\n      revert\n        /* \"#utility.yul\":720:1288   */\n    tag_56:\n        /* \"#utility.yul\":793:801   */\n      0x00\n        /* \"#utility.yul\":803:809   */\n      dup1\n        /* \"#utility.yul\":853:856   */\n      dup4\n        /* \"#utility.yul\":846:850   */\n      0x1f\n        /* \"#utility.yul\":838:844   */\n      dup5\n        /* \"#utility.yul\":834:851   */\n      add\n        /* \"#utility.yul\":830:857   */\n      slt\n        /* \"#utility.yul\":820:942   */\n      tag_97\n      jumpi\n        /* \"#utility.yul\":861:940   */\n      tag_98\n      tag_53\n      jump\t// in\n    tag_98:\n        /* \"#utility.yul\":820:942   */\n    tag_97:\n        /* \"#utility.yul\":974:980   */\n      dup3\n        /* \"#utility.yul\":961:981   */\n      calldataload\n        /* \"#utility.yul\":951:981   */\n      swap1\n      pop\n        /* \"#utility.yul\":1004:1022   */\n      0xffffffffffffffff\n        /* \"#utility.yul\":996:1002   */\n      dup2\n        /* \"#utility.yul\":993:1023   */\n      gt\n        /* \"#utility.yul\":990:1107   */\n      iszero\n      tag_99\n      jumpi\n        /* \"#utility.yul\":1026:1105   */\n      tag_100\n      tag_54\n      jump\t// in\n    tag_100:\n        /* \"#utility.yul\":990:1107   */\n    tag_99:\n        /* \"#utility.yul\":1140:1144   */\n      0x20\n        /* \"#utility.yul\":1132:1138   */\n      dup4\n        /* \"#utility.yul\":1128:1145   */\n      add\n        /* \"#utility.yul\":1116:1145   */\n      swap2\n      pop\n        /* \"#utility.yul\":1194:1197   */\n      dup4\n        /* \"#utility.yul\":1186:1190   */\n      0x20\n        /* \"#utility.yul\":1178:1184   */\n      dup3\n        /* \"#utility.yul\":1174:1191   */\n      mul\n        /* \"#utility.yul\":1164:1172   */\n      dup4\n        /* \"#utility.yul\":1160:1192   */\n      add\n        /* \"#utility.yul\":1157:1198   */\n      gt\n        /* \"#utility.yul\":1154:1282   */\n      iszero\n      tag_101\n      jumpi\n        /* \"#utility.yul\":1201:1280   */\n      tag_102\n      tag_55\n      jump\t// in\n    tag_102:\n        /* \"#utility.yul\":1154:1282   */\n    tag_101:\n        /* \"#utility.yul\":720:1288   */\n      swap3\n      pop\n      swap3\n      swap1\n      pop\n      jump\t// out\n        /* \"#utility.yul\":1294:1853   */\n    tag_9:\n        /* \"#utility.yul\":1380:1386   */\n      0x00\n        /* \"#utility.yul\":1388:1394   */\n      dup1\n        /* \"#utility.yul\":1437:1439   */\n      0x20\n        /* \"#utility.yul\":1425:1434   */\n      dup4\n        /* \"#utility.yul\":1416:1423   */\n      dup6\n        /* \"#utility.yul\":1412:1435   */\n      sub\n        /* \"#utility.yul\":1408:1440   */\n      slt\n        /* \"#utility.yul\":1405:1524   */\n      iszero\n      tag_104\n      jumpi\n        /* \"#utility.yul\":1443:1522   */\n      tag_105\n      tag_51\n      jump\t// in\n    tag_105:\n        /* \"#utility.yul\":1405:1524   */\n    tag_104:\n        /* \"#utility.yul\":1591:1592   */\n      0x00\n        /* \"#utility.yul\":1580:1589   */\n      dup4\n        /* \"#utility.yul\":1576:1593   */\n      add\n        /* \"#utility.yul\":1563:1594   */\n      calldataload\n        /* \"#utility.yul\":1621:1639   */\n      0xffffffffffffffff\n        /* \"#utility.yul\":1613:1619   */\n      dup2\n        /* \"#utility.yul\":1610:1640   */\n      gt\n        /* \"#utility.yul\":1607:1724   */\n      iszero\n      tag_106\n      jumpi\n        /* \"#utility.yul\":1643:1722   */\n      tag_107\n      tag_52\n      jump\t// in\n    tag_107:\n        /* \"#utility.yul\":1607:1724   */\n    tag_106:\n        /* \"#utility.yul\":1756:1836   */\n      tag_108\n        /* \"#utility.yul\":1828:1835   */\n      dup6\n        /* \"#utility.yul\":1819:1825   */\n      dup3\n        /* \"#utility.yul\":1808:1817   */\n      dup7\n        /* \"#utility.yul\":1804:1826   */\n      add\n        /* \"#utility.yul\":1756:1836   */\n      tag_56\n      jump\t// in\n    tag_108:\n        /* \"#utility.yul\":1738:1836   */\n      swap3\n      pop\n      swap3\n      pop\n        /* \"#utility.yul\":1534:1846   */\n      pop\n        /* \"#utility.yul\":1294:1853   */\n      swap3\n      pop\n      swap3\n      swap1\n      pop\n      jump\t// out\n        /* \"#utility.yul\":1859:2043   */\n    tag_57:\n        /* \"#utility.yul\":1958:1969   */\n      0x00\n        /* \"#utility.yul\":1992:1998   */\n      dup3\n        /* \"#utility.yul\":1987:1990   */\n      dup3\n        /* \"#utility.yul\":1980:1999   */\n      mstore\n        /* \"#utility.yul\":2032:2036   */\n      0x20\n        /* \"#utility.yul\":2027:2030   */\n      dup3\n        /* \"#utility.yul\":2023:2037   */\n      add\n        /* \"#utility.yul\":2008:2037   */\n      swap1\n      pop\n        /* \"#utility.yul\":1859:2043   */\n      swap3\n      swap2\n      pop\n      pop\n      jump\t// out\n        /* \"#utility.yul\":2049:2166   */\n    tag_58:\n        /* \"#utility.yul\":2158:2159   */\n      0x00\n        /* \"#utility.yul\":2155:2156   */\n      dup1\n        /* \"#utility.yul\":2148:2160   */\n      revert\n        /* \"#utility.yul\":2172:2271   */\n    tag_59:\n        /* \"#utility.yul\":2257:2263   */\n      dup3\n        /* \"#utility.yul\":2252:2255   */\n      dup2\n        /* \"#utility.yul\":2247:2250   */\n      dup4\n        /* \"#utility.yul\":2234:2264   */\n      calldatacopy\n        /* \"#utility.yul\":2172:2271   */\n      pop\n      pop\n      pop\n      jump\t// out\n        /* \"#utility.yul\":2307:2844   */\n    tag_60:\n        /* \"#utility.yul\":2435:2438   */\n      0x00\n        /* \"#utility.yul\":2456:2542   */\n      tag_113\n        /* \"#utility.yul\":2535:2541   */\n      dup4\n        /* \"#utility.yul\":2530:2533   */\n      dup6\n        /* \"#utility.yul\":2456:2542   */\n      tag_57\n      jump\t// in\n    tag_113:\n        /* \"#utility.yul\":2449:2542   */\n      swap4\n      pop\n        /* \"#utility.yul\":2566:2632   */\n      0x07ffffffffffffffffffffffffffffffffffffffffffffffffffffffffffffff\n        /* \"#utility.yul\":2558:2564   */\n      dup4\n        /* \"#utility.yul\":2555:2633   */\n      gt\n        /* \"#utility.yul\":2552:2717   */\n      iszero\n      tag_114\n      jumpi\n        /* \"#utility.yul\":2636:2715   */\n      tag_115\n      tag_58\n      jump\t// in\n    tag_115:\n        /* \"#utility.yul\":2552:2717   */\n    tag_114:\n        /* \"#utility.yul\":2748:2752   */\n      0x20\n        /* \"#utility.yul\":2740:2746   */\n      dup4\n        /* \"#utility.yul\":2736:2753   */\n      mul\n        /* \"#utility.yul\":2726:2753   */\n      swap3\n      pop\n        /* \"#utility.yul\":2763:2806   */\n      tag_116\n        /* \"#utility.yul\":2799:2805   */\n      dup4\n        /* \"#utility.yul\":2794:2797   */\n      dup6\n        /* \"#utility.yul\":2787:2792   */\n      dup5\n        /* \"#utility.yul\":2763:2806   */\n      tag_59\n      jump\t// in\n    tag_116:\n        /* \"#utility.yul\":2831:2837   */\n      dup3\n        /* \"#utility.yul\":2826:2829   */\n      dup5\n        /* \"#utility.yul\":2822:2838   */\n      add\n        /* \"#utility.yul\":2815:2838   */\n      swap1\n      pop\n        /* \"#utility.yul\":2307:2844   */\n      swap4\n      swap3\n      pop\n      pop\n      pop\n      jump\t// out\n        /* \"#utility.yul\":2850:3243   */\n    tag_12:\n        /* \"#utility.yul\":3003:3007   */\n      0x00\n        /* \"#utility.yul\":3041:3043   */\n      0x20\n        /* \"#utility.yul\":3030:3039   */\n      dup3\n        /* \"#utility.yul\":3026:3044   */\n      add\n        /* \"#utility.yul\":3018:3044   */\n      swap1\n      pop\n        /* \"#utility.yul\":3090:3099   */\n      dup2\n        /* \"#utility.yul\":3084:3088   */\n      dup2\n        /* \"#utility.yul\":3080:3100   */\n      sub\n        /* \"#utility.yul\":3076:3077   */\n      0x00\n        /* \"#utility.yul\":3065:3074   */\n      dup4\n        /* \"#utility.yul\":3061:3078   */\n      add\n        /* \"#utility.yul\":3054:3101   */\n      mstore\n        /* \"#utility.yul\":3118:3236   */\n      tag_118\n        /* \"#utility.yul\":3231:3235   */\n      dup2\n        /* \"#utility.yul\":3222:3228   */\n      dup5\n        /* \"#utility.yul\":3214:3220   */\n      dup7\n        /* \"#utility.yul\":3118:3236   */\n      tag_60\n      jump\t// in\n    tag_118:\n        /* \"#utility.yul\":3110:3236   */\n      swap1\n      pop\n        /* \"#utility.yul\":2850:3243   */\n      swap4\n      swap3\n      pop\n      pop\n      pop\n      jump\t// out\n        /* \"#utility.yul\":3249:3326   */\n    tag_61:\n        /* \"#utility.yul\":3286:3293   */\n      0x00\n        /* \"#utility.yul\":3315:3320   */\n      dup2\n        /* \"#utility.yul\":3304:3320   */\n      swap1\n      pop\n        /* \"#utility.yul\":3249:3326   */\n      swap2\n      swap1\n      pop\n      jump\t// out\n        /* \"#utility.yul\":3332:3454   */\n    tag_62:\n        /* \"#utility.yul\":3405:3429   */\n      tag_121\n        /* \"#utility.yul\":3423:3428   */\n      dup2\n        /* \"#utility.yul\":3405:3429   */\n      tag_61\n      jump\t// in\n    tag_121:\n        /* \"#utility.yul\":3398:3403   */\n      dup2\n        /* \"#utility.yul\":3395:3430   */\n      eq\n        /* \"#utility.yul\":3385:3448   */\n      tag_122\n      jumpi\n        /* \"#utility.yul\":3444:3445   */\n      0x00\n        /* \"#utility.yul\":3441:3442   */\n      dup1\n        /* \"#utility.yul\":3434:3446   */\n      revert\n        /* \"#utility.yul\":3385:3448   */\n    tag_122:\n        /* \"#utility.yul\":3332:3454   */\n      pop\n      jump\t// out\n        /* \"#utility.yul\":3460:3599   */\n    tag_63:\n        /* \"#utility.yul\":3506:3511   */\n      0x00\n        /* \"#utility.yul\":3544:3550   */\n      dup2\n        /* \"#utility.yul\":3531:3551   */\n      calldataload\n        /* \"#utility.yul\":3522:3551   */\n      swap1\n      pop\n        /* \"#utility.yul\":3560:3593   */\n      tag_124\n        /* \"#utility.yul\":3587:3592   */\n      dup2\n        /* \"#utility.yul\":3560:3593   */\n      tag_62\n      jump\t// in\n    tag_124:\n        /* \"#utility.yul\":3460:3599   */\n      swap3\n      swap2\n      pop\n      pop\n      jump\t// out\n        /* \"#utility.yul\":3605:3934   */\n    tag_15:\n        /* \"#utility.yul\":3664:3670   */\n      0x00\n        /* \"#utility.yul\":3713:3715   */\n      0x20\n        /* \"#utility.yul\":3701:3710   */\n      dup3\n        /* \"#utility.yul\":3692:3699   */\n      dup5\n        /* \"#utility.yul\":3688:3711   */\n      sub\n        /* \"#utility.yul\":3684:3716   */\n      slt\n        /* \"#utility.yul\":3681:3800   */\n      iszero\n      tag_126\n      jumpi\n        /* \"#utility.yul\":3719:3798   */\n      tag_127\n      tag_51\n      jump\t// in\n    tag_127:\n        /* \"#utility.yul\":3681:3800   */\n    tag_126:\n        /* \"#utility.yul\":3839:3840   */\n      0x00\n        /* \"#utility.yul\":3864:3917   */\n      tag_128\n        /* \"#utility.yul\":3909:3916   */\n      dup5\n        /* \"#utility.yul\":3900:3906   */\n      dup3\n        /* \"#utility.yul\":3889:3898   */\n      dup6\n        /* \"#utility.yul\":3885:3907   */\n      add\n        /* \"#utility.yul\":3864:3917   */\n      tag_63\n      jump\t// in\n    tag_128:\n        /* \"#utility.yul\":3854:3917   */\n      swap2\n      pop\n        /* \"#utility.yul\":3810:3927   */\n      pop\n        /* \"#utility.yul\":3605:3934   */\n      swap3\n      swap2\n      pop\n      pop\n      jump\t// out\n        /* \"#utility.yul\":3940:4039   */\n    tag_64:\n        /* \"#utility.yul\":3992:3998   */\n      0x00\n        /* \"#utility.yul\":4026:4031   */\n      dup2\n        /* \"#utility.yul\":4020:4032   */\n      mload\n        /* \"#utility.yul\":4010:4032   */\n      swap1\n      pop\n        /* \"#utility.yul\":3940:4039   */\n      swap2\n      swap1\n      pop\n      jump\t// out\n        /* \"#utility.yul\":4045:4214   */\n    tag_65:\n        /* \"#utility.yul\":4129:4140   */\n      0x00\n        /* \"#utility.yul\":4163:4169   */\n      dup3\n        /* \"#utility.yul\":4158:4161   */\n      dup3\n        /* \"#utility.yul\":4151:4170   */\n      mstore\n        /* \"#utility.yul\":4203:4207   */\n      0x20\n        /* \"#utility.yul\":4198:4201   */\n      dup3\n        /* \"#utility.yul\":4194:4208   */\n      add\n        /* \"#utility.yul\":4179:4208   */\n      swap1\n      pop\n        /* \"#utility.yul\":4045:4214   */\n      swap3\n      swap2\n      pop\n      pop\n      jump\t// out\n        /* \"#utility.yul\":4220:4359   */\n    tag_66:\n        /* \"#utility.yul\":4309:4315   */\n      dup3\n        /* \"#utility.yul\":4304:4307   */\n      dup2\n        /* \"#utility.yul\":4299:4302   */\n      dup4\n        /* \"#utility.yul\":4293:4316   */\n      mcopy\n        /* \"#utility.yul\":4350:4351   */\n      0x00\n        /* \"#utility.yul\":4341:4347   */\n      dup4\n        /* \"#utility.yul\":4336:4339   */\n      dup4\n        /* \"#utility.yul\":4332:4348   */\n      add\n        /* \"#utility.yul\":4325:4352   */\n      mstore\n        /* \"#utility.yul\":4220:4359   */\n      pop\n      pop\n      pop\n      jump\t// out\n        /* \"#utility.yul\":4365:4467   */\n    tag_67:\n        /* \"#utility.yul\":4406:4412   */\n      0x00\n        /* \"#utility.yul\":4457:4459   */\n      0x1f\n        /* \"#utility.yul\":4453:4460   */\n      not\n        /* \"#utility.yul\":4448:4450   */\n      0x1f\n        /* \"#utility.yul\":4441:4446   */\n      dup4\n        /* \"#utility.yul\":4437:4451   */\n      add\n        /* \"#utility.yul\":4433:4461   */\n      and\n        /* \"#utility.yul\":4423:4461   */\n      swap1\n      pop\n        /* \"#utility.yul\":4365:4467   */\n      swap2\n      swap1\n      pop\n      jump\t// out\n        /* \"#utility.yul\":4473:4850   */\n    tag_68:\n        /* \"#utility.yul\":4561:4564   */\n      0x00\n        /* \"#utility.yul\":4589:4628   */\n      tag_134\n        /* \"#utility.yul\":4622:4627   */\n      dup3\n        /* \"#utility.yul\":4589:4628   */\n      tag_64\n      jump\t// in\n    tag_134:\n        /* \"#utility.yul\":4644:4715   */\n      tag_135\n        /* \"#utility.yul\":4708:4714   */\n      dup2\n        /* \"#utility.yul\":4703:4706   */\n      dup6\n        /* \"#utility.yul\":4644:4715   */\n      tag_65\n      jump\t// in\n    tag_135:\n        /* \"#utility.yul\":4637:4715   */\n      swap4\n      pop\n        /* \"#utility.yul\":4724:4789   */\n      tag_136\n        /* \"#utility.yul\":4782:4788   */\n      dup2\n        /* \"#utility.yul\":4777:4780   */\n      dup6\n        /* \"#utility.yul\":4770:4774   */\n      0x20\n        /* \"#utility.yul\":4763:4768   */\n      dup7\n        /* \"#utility.yul\":4759:4775   */\n      add\n        /* \"#utility.yul\":4724:4789   */\n      tag_66\n      jump\t// in\n    tag_136:\n        /* \"#utility.yul\":4814:4843   */\n      tag_137\n        /* \"#utility.yul\":4836:4842   */\n      dup2\n        /* \"#utility.yul\":4814:4843   */\n      tag_67\n      jump\t// in\n    tag_137:\n        /* \"#utility.yul\":4809:4812   */\n      dup5\n        /* \"#utility.yul\":4805:4844   */\n      add\n        /* \"#utility.yul\":4798:4844   */\n      swap2\n      pop\n        /* \"#utility.yul\":4565:4850   */\n      pop\n        /* \"#utility.yul\":4473:4850   */\n      swap3\n      swap2\n      pop\n      pop\n      jump\t// out\n        /* \"#utility.yul\":4856:4946   */\n    tag_69:\n        /* \"#utility.yul\":4890:4897   */\n      0x00\n        /* \"#utility.yul\":4933:4938   */\n      dup2\n        /* \"#utility.yul\":4926:4939   */\n      iszero\n        /* \"#utility.yul\":4919:4940   */\n      iszero\n        /* \"#utility.yul\":4908:4940   */\n      swap1\n      pop\n        /* \"#utility.yul\":4856:4946   */\n      swap2\n      swap1\n      pop\n      jump\t// out\n        /* \"#utility.yul\":4952:5061   */\n    tag_70:\n        /* \"#utility.yul\":5033:5054   */\n      tag_140\n        /* \"#utility.yul\":5048:5053   */\n      dup2\n        /* \"#utility.yul\":5033:5054   */\n      tag_69\n      jump\t// in\n    tag_140:\n        /* \"#utility.yul\":5028:5031   */\n      dup3\n        /* \"#utility.yul\":5021:5055   */\n      mstore\n        /* \"#utility.yul\":4952:5061   */\n      pop\n      pop\n      jump\t// out\n        /* \"#utility.yul\":5067:5478   */\n    tag_18:\n        /* \"#utility.yul\":5202:5206   */\n      0x00\n        /* \"#utility.yul\":5240:5242   */\n      0x40\n        /* \"#utility.yul\":5229:5238   */\n      dup3\n        /* \"#utility.yul\":5225:5243   */\n      add\n        /* \"#utility.yul\":5217:5243   */\n      swap1\n      pop\n        /* \"#utility.yul\":5289:5298   */\n      dup2\n        /* \"#utility.yul\":5283:5287   */\n      dup2\n        /* \"#utility.yul\":5279:5299   */\n      sub\n        /* \"#utility.yul\":5275:5276   */\n      0x00\n        /* \"#utility.yul\":5264:5273   */\n      dup4\n        /* \"#utility.yul\":5260:5277   */\n      add\n        /* \"#utility.yul\":5253:5300   */\n      mstore\n        /* \"#utility.yul\":5317:5395   */\n      tag_142\n        /* \"#utility.yul\":5390:5394   */\n      dup2\n        /* \"#utility.yul\":5381:5387   */\n      dup6\n        /* \"#utility.yul\":5317:5395   */\n      tag_68\n      jump\t// in\n    tag_142:\n        /* \"#utility.yul\":5309:5395   */\n      swap1\n      pop\n        /* \"#utility.yul\":5405:5471   */\n      tag_143\n        /* \"#utility.yul\":5467:5469   */\n      0x20\n        /* \"#utility.yul\":5456:5465   */\n      dup4\n        /* \"#utility.yul\":5452:5470   */\n      add\n        /* \"#utility.yul\":5443:5449   */\n      dup5\n        /* \"#utility.yul\":5405:5471   */\n      tag_70\n      jump\t// in\n    tag_143:\n        /* \"#utility.yul\":5067:5478   */\n      swap4\n      swap3\n      pop\n      pop\n      pop\n      jump\t// out\n        /* \"#utility.yul\":5498:6051   */\n    tag_71:\n        /* \"#utility.yul\":5556:5564   */\n      0x00\n        /* \"#utility.yul\":5566:5572   */\n      dup1\n        /* \"#utility.yul\":5616:5619   */\n      dup4\n        /* \"#utility.yul\":5609:5613   */\n      0x1f\n        /* \"#utility.yul\":5601:5607   */\n      dup5\n        /* \"#utility.yul\":5597:5614   */\n      add\n        /* \"#utility.yul\":5593:5620   */\n      slt\n        /* \"#utility.yul\":5583:5705   */\n      tag_145\n      jumpi\n        /* \"#utility.yul\":5624:5703   */\n      tag_146\n      tag_53\n      jump\t// in\n    tag_146:\n        /* \"#utility.yul\":5583:5705   */\n    tag_145:\n        /* \"#utility.yul\":5737:5743   */\n      dup3\n        /* \"#utility.yul\":5724:5744   */\n      calldataload\n        /* \"#utility.yul\":5714:5744   */\n      swap1\n      pop\n        /* \"#utility.yul\":5767:5785   */\n      0xffffffffffffffff\n        /* \"#utility.yul\":5759:5765   */\n      dup2\n        /* \"#utility.yul\":5756:5786   */\n      gt\n        /* \"#utility.yul\":5753:5870   */\n      iszero\n      tag_147\n      jumpi\n        /* \"#utility.yul\":5789:5868   */\n      tag_148\n      tag_54\n      jump\t// in\n    tag_148:\n        /* \"#utility.yul\":5753:5870   */\n    tag_147:\n        /* \"#utility.yul\":5903:5907   */\n      0x20\n        /* \"#utility.yul\":5895:5901   */\n      dup4\n        /* \"#utility.yul\":5891:5908   */\n      add\n        /* \"#utility.yul\":5879:5908   */\n      swap2\n      pop\n        /* \"#utility.yul\":5957:5960   */\n      dup4\n        /* \"#utility.yul\":5949:5953   */\n      0x01\n        /* \"#utility.yul\":5941:5947   */\n      dup3\n        /* \"#utility.yul\":5937:5954   */\n      mul\n        /* \"#utility.yul\":5927:5935   */\n      dup4\n        /* \"#utility.yul\":5923:5955   */\n      add\n        /* \"#utility.yul\":5920:5961   */\n      gt\n        /* \"#utility.yul\":5917:6045   */\n      iszero\n      tag_149\n      jumpi\n        /* \"#utility.yul\":5964:6043   */\n      tag_150\n      tag_55\n      jump\t// in\n    tag_150:\n        /* \"#utility.yul\":5917:6045   */\n    tag_149:\n        /* \"#utility.yul\":5498:6051   */\n      swap3\n      pop\n      swap3\n      swap1\n      pop\n      jump\t// out\n        /* \"#utility.yul\":6057:6586   */\n    tag_21:\n        /* \"#utility.yul\":6128:6134   */\n      0x00\n        /* \"#utility.yul\":6136:6142   */\n      dup1\n        /* \"#utility.yul\":6185:6187   */\n      0x20\n        /* \"#utility.yul\":6173:6182   */\n      dup4\n        /* \"#utility.yul\":6164:6171   */\n      dup6\n        /* \"#utility.yul\":6160:6183   */\n      sub\n        /* \"#utility.yul\":6156:6188   */\n      slt\n        /* \"#utility.yul\":6153:6272   */\n      iszero\n      tag_152\n      jumpi\n        /* \"#utility.yul\":6191:6270   */\n      tag_153\n      tag_51\n      jump\t// in\n    tag_153:\n        /* \"#utility.yul\":6153:6272   */\n    tag_152:\n        /* \"#utility.yul\":6339:6340   */\n      0x00\n        /* \"#utility.yul\":6328:6337   */\n      dup4\n        /* \"#utility.yul\":6324:6341   */\n      add\n        /* \"#utility.yul\":6311:6342   */\n      calldataload\n        /* \"#utility.yul\":6369:6387   */\n      0xffffffffffffffff\n        /* \"#utility.yul\":6361:6367   */\n      dup2\n        /* \"#utility.yul\":6358:6388   */\n      gt\n        /* \"#utility.yul\":6355:6472   */\n      iszero\n      tag_154\n      jumpi\n        /* \"#utility.yul\":6391:6470   */\n      tag_155\n      tag_52\n      jump\t// in\n    tag_155:\n        /* \"#utility.yul\":6355:6472   */\n    tag_154:\n        /* \"#utility.yul\":6504:6569   */\n      tag_156\n        /* \"#utility.yul\":6561:6568   */\n      dup6\n        /* \"#utility.yul\":6552:6558   */\n      dup3\n        /* \"#utility.yul\":6541:6550   */\n      dup7\n        /* \"#utility.yul\":6537:6559   */\n      add\n        /* \"#utility.yul\":6504:6569   */\n      tag_71\n      jump\t// in\n    tag_156:\n        /* \"#utility.yul\":6486:6569   */\n      swap3\n      pop\n      swap3\n      pop\n        /* \"#utility.yul\":6282:6579   */\n      pop\n        /* \"#utility.yul\":6057:6586   */\n      swap3\n      pop\n      swap3\n      swap1\n      pop\n      jump\t// out\n        /* \"#utility.yul\":6592:6772   */\n    tag_31:\n        /* \"#utility.yul\":6640:6717   */\n      0x4e487b7100000000000000000000000000000000000000000000000000000000\n        /* \"#utility.yul\":6637:6638   */\n      0x00\n        /* \"#utility.yul\":6630:6718   */\n      mstore\n        /* \"#utility.yul\":6737:6741   */\n      0x32\n        /* \"#utility.yul\":6734:6735   */\n      0x04\n        /* \"#utility.yul\":6727:6742   */\n      mstore\n        /* \"#utility.yul\":6761:6765   */\n      0x24\n        /* \"#utility.yul\":6758:6759   */\n      0x00\n        /* \"#utility.yul\":6751:6766   */\n      revert\n        /* \"#utility.yul\":6778:6958   */\n    tag_72:\n        /* \"#utility.yul\":6826:6903   */\n      0x4e487b7100000000000000000000000000000000000000000000000000000000\n        /* \"#utility.yul\":6823:6824   */\n      0x00\n        /* \"#utility.yul\":6816:6904   */\n      mstore\n        /* \"#utility.yul\":6923:6927   */\n      0x22\n        /* \"#utility.yul\":6920:6921   */\n      0x04\n        /* \"#utility.yul\":6913:6928   */\n      mstore\n        /* \"#utility.yul\":6947:6951   */\n      0x24\n        /* \"#utility.yul\":6944:6945   */\n      0x00\n        /* \"#utility.yul\":6937:6952   */\n      revert\n        /* \"#utility.yul\":6964:7284   */\n    tag_34:\n        /* \"#utility.yul\":7008:7014   */\n      0x00\n        /* \"#utility.yul\":7045:7046   */\n      0x02\n        /* \"#utility.yul\":7039:7043   */\n      dup3\n        /* \"#utility.yul\":7035:7047   */\n      div\n        /* \"#utility.yul\":7025:7047   */\n      swap1\n      pop\n        /* \"#utility.yul\":7092:7093   */\n      0x01\n        /* \"#utility.yul\":7086:7090   */\n      dup3\n        /* \"#utility.yul\":7082:7094   */\n      and\n        /* \"#utility.yul\":7113:7131   */\n      dup1\n        /* \"#utility.yul\":7103:7184   */\n      tag_160\n      jumpi\n        /* \"#utility.yul\":7169:7173   */\n      0x7f\n        /* \"#utility.yul\":7161:7167   */\n      dup3\n        /* \"#utility.yul\":7157:7174   */\n      and\n        /* \"#utility.yul\":7147:7174   */\n      swap2\n      pop\n        /* \"#utility.yul\":7103:7184   */\n    tag_160:\n        /* \"#utility.yul\":7231:7233   */\n      0x20\n        /* \"#utility.yul\":7223:7229   */\n      dup3\n        /* \"#utility.yul\":7220:7234   */\n      lt\n        /* \"#utility.yul\":7200:7218   */\n      dup2\n        /* \"#utility.yul\":7197:7235   */\n      sub\n        /* \"#utility.yul\":7194:7278   */\n      tag_161\n      jumpi\n        /* \"#utility.yul\":7250:7268   */\n      tag_162\n      tag_72\n      jump\t// in\n    tag_162:\n        /* \"#utility.yul\":7194:7278   */\n    tag_161:\n        /* \"#utility.yul\":7015:7284   */\n      pop\n        /* \"#utility.yul\":6964:7284   */\n      swap2\n      swap1\n      pop\n      jump\t// out\n        /* \"#utility.yul\":7290:7470   */\n    tag_73:\n        /* \"#utility.yul\":7338:7415   */\n      0x4e487b7100000000000000000000000000000000000000000000000000000000\n        /* \"#utility.yul\":7335:7336   */\n      0x00\n        /* \"#utility.yul\":7328:7416   */\n      mstore\n        /* \"#utility.yul\":7435:7439   */\n      0x41\n        /* \"#utility.yul\":7432:7433   */\n      0x04\n        /* \"#utility.yul\":7425:7440   */\n      mstore\n        /* \"#utility.yul\":7459:7463   */\n      0x24\n        /* \"#utility.yul\":7456:7457   */\n      0x00\n        /* \"#utility.yul\":7449:7464   */\n      revert\n        /* \"#utility.yul\":7476:7617   */\n    tag_74:\n        /* \"#utility.yul\":7525:7529   */\n      0x00\n        /* \"#utility.yul\":7548:7551   */\n      dup2\n        /* \"#utility.yul\":7540:7551   */\n      swap1\n      pop\n        /* \"#utility.yul\":7571:7574   */\n      dup2\n        /* \"#utility.yul\":7568:7569   */\n      0x00\n        /* \"#utility.yul\":7561:7575   */\n      mstore\n        /* \"#utility.yul\":7605:7609   */\n      0x20\n        /* \"#utility.yul\":7602:7603   */\n      0x00\n        /* \"#utility.yul\":7592:7610   */\n      keccak256\n        /* \"#utility.yul\":7584:7610   */\n      swap1\n      pop\n        /* \"#utility.yul\":7476:7617   */\n      swap2\n      swap1\n      pop\n      jump\t// out\n        /* \"#utility.yul\":7623:7716   */\n    tag_75:\n        /* \"#utility.yul\":7660:7666   */\n      0x00\n        /* \"#utility.yul\":7707:7709   */\n      0x20\n        /* \"#utility.yul\":7702:7704   */\n      0x1f\n        /* \"#utility.yul\":7695:7700   */\n      dup4\n        /* \"#utility.yul\":7691:7705   */\n      add\n        /* \"#utility.yul\":7687:7710   */\n      div\n        /* \"#utility.yul\":7677:7710   */\n      swap1\n      pop\n        /* \"#utility.yul\":7623:7716   */\n      swap2\n      swap1\n      pop\n      jump\t// out\n        /* \"#utility.yul\":7722:7829   */\n    tag_76:\n        /* \"#utility.yul\":7766:7774   */\n      0x00\n        /* \"#utility.yul\":7816:7821   */\n      dup3\n        /* \"#utility.yul\":7810:7814   */\n      dup3\n        /* \"#utility.yul\":7806:7822   */\n      shl\n        /* \"#utility.yul\":7785:7822   */\n      swap1\n      pop\n        /* \"#utility.yul\":7722:7829   */\n      swap3\n      swap2\n      pop\n      pop\n      jump\t// out\n        /* \"#utility.yul\":7835:8228   */\n    tag_77:\n        /* \"#utility.yul\":7904:7910   */\n      0x00\n        /* \"#utility.yul\":7954:7955   */\n      0x08\n        /* \"#utility.yul\":7942:7952   */\n      dup4\n        /* \"#utility.yul\":7938:7956   */\n      mul\n        /* \"#utility.yul\":7977:8074   */\n      tag_168\n        /* \"#utility.yul\":8007:8073   */\n      0xffffffffffffffffffffffffffffffffffffffffffffffffffffffffffffffff\n        /* \"#utility.yul\":7996:8005   */\n      dup3\n        /* \"#utility.yul\":7977:8074   */\n      tag_76\n      jump\t// in\n    tag_168:\n        /* \"#utility.yul\":8095:8134   */\n      tag_169\n        /* \"#utility.yul\":8125:8133   */\n      dup7\n        /* \"#utility.yul\":8114:8123   */\n      dup4\n        /* \"#utility.yul\":8095:8134   */\n      tag_76\n      jump\t// in\n    tag_169:\n        /* \"#utility.yul\":8083:8134   */\n      swap6\n      pop\n        /* \"#utility.yul\":8167:8171   */\n      dup1\n        /* \"#utility.yul\":8163:8172   */\n      not\n        /* \"#utility.yul\":8156:8161   */\n      dup5\n        /* \"#utility.yul\":8152:8173   */\n      and\n        /* \"#utility.yul\":8143:8173   */\n      swap4\n      pop\n        /* \"#utility.yul\":8216:8220   */\n      dup1\n        /* \"#utility.yul\":8206:8214   */\n      dup7\n        /* \"#utility.yul\":8202:8221   */\n      and\n        /* \"#utility.yul\":8195:8200   */\n      dup5\n        /* \"#utility.yul\":8192:8222   */\n      or\n        /* \"#utility.yul\":8182:8222   */\n      swap3\n      pop\n        /* \"#utility.yul\":7911:8228   */\n      pop\n      pop\n        /* \"#utility.yul\":7835:8228   */\n      swap4\n      swap3\n      pop\n      pop\n      pop\n      jump\t// out\n        /* \"#utility.yul\":8234:8294   */\n    tag_78:\n        /* \"#utility.yul\":8262:8265   */\n      0x00\n        /* \"#utility.yul\":8283:8288   */\n      dup2\n        /* \"#utility.yul\":8276:8288   */\n      swap1\n      pop\n        /* \"#utility.yul\":8234:8294   */\n      swap2\n      swap1\n      pop\n      jump\t// out\n        /* \"#utility.yul\":8300:8442   */\n    tag_79:\n        /* \"#utility.yul\":8350:8359   */\n      0x00\n        /* \"#utility.yul\":8383:8436   */\n      tag_172\n        /* \"#utility.yul\":8401:8435   */\n      tag_173\n        /* \"#utility.yul\":8410:8434   */\n      tag_174\n        /* \"#utility.yul\":8428:8433   */\n      dup5\n        /* \"#utility.yul\":8410:8434   */\n      tag_61\n      jump\t// in\n    tag_174:\n        /* \"#utility.yul\":8401:8435   */\n      tag_78\n      jump\t// in\n    tag_173:\n        /* \"#utility.yul\":8383:8436   */\n      tag_61\n      jump\t// in\n    tag_172:\n        /* \"#utility.yul\":8370:8436   */\n      swap1\n      pop\n        /* \"#utility.yul\":8300:8442   */\n      swap2\n      swap1\n      pop\n      jump\t// out\n        /* \"#utility.yul\":8448:8523   */\n    tag_80:\n        /* \"#utility.yul\":8491:8494   */\n      0x00\n        /* \"#utility.yul\":8512:8517   */\n      dup2\n        /* \"#utility.yul\":8505:8517   */\n      swap1\n      pop\n        /* \"#utility.yul\":8448:8523   */\n      swap2\n      swap1\n      pop\n      jump\t// out\n        /* \"#utility.yul\":8529:8798   */\n    tag_81:\n        /* \"#utility.yul\":8639:8678   */\n      tag_177\n        /* \"#utility.yul\":8670:8677   */\n      dup4\n        /* \"#utility.yul\":8639:8678   */\n      tag_79\n      jump\t// in\n    tag_177:\n        /* \"#utility.yul\":8700:8791   */\n      tag_178\n        /* \"#utility.yul\":8749:8790   */\n      tag_179\n        /* \"#utility.yul\":8773:8789   */\n      dup3\n        /* \"#utility.yul\":8749:8790   */\n      tag_80\n      jump\t// in\n    tag_179:\n        /* \"#utility.yul\":8741:8747   */\n      dup5\n        /* \"#utility.yul\":8734:8738   */\n      dup5\n        /* \"#utility.yul\":8728:8739   */\n      sload\n        /* \"#utility.yul\":8700:8791   */\n      tag_77\n      jump\t// in\n    tag_178:\n        /* \"#utility.yul\":8694:8698   */\n      dup3\n        /* \"#utility.yul\":8687:8792   */\n      sstore\n        /* \"#utility.yul\":8605:8798   */\n      pop\n        /* \"#utility.yul\":8529:8798   */\n      pop\n      pop\n      pop\n      jump\t// out\n        /* \"#utility.yul\":8804:8877   */\n    tag_82:\n        /* \"#utility.yul\":8849:8852   */\n      0x00\n        /* \"#utility.yul\":8804:8877   */\n      swap1\n      jump\t// out\n        /* \"#utility.yul\":8883:9072   */\n    tag_83:\n        /* \"#utility.yul\":8960:8992   */\n      tag_182\n      tag_82\n      jump\t// in\n    tag_182:\n        /* \"#utility.yul\":9001:9066   */\n      tag_183\n        /* \"#utility.yul\":9059:9065   */\n      dup2\n        /* \"#utility.yul\":9051:9057   */\n      dup5\n        /* \"#utility.yul\":9045:9049   */\n      dup5\n        /* \"#utility.yul\":9001:9066   */\n      tag_81\n      jump\t// in\n    tag_183:\n        /* \"#utility.yul\":8936:9072   */\n      pop\n        /* \"#utility.yul\":8883:9072   */\n      pop\n      pop\n      jump\t// out\n        /* \"#utility.yul\":9078:9264   */\n    tag_84:\n        /* \"#utility.yul\":9138:9258   */\n    tag_185:\n        /* \"#utility.yul\":9155:9158   */\n      dup2\n        /* \"#utility.yul\":9148:9153   */\n      dup2\n        /* \"#utility.yul\":9145:9159   */\n      lt\n        /* \"#utility.yul\":9138:9258   */\n      iszero\n      tag_187\n      jumpi\n        /* \"#utility.yul\":9209:9248   */\n      tag_188\n        /* \"#utility.yul\":9246:9247   */\n      0x00\n        /* \"#utility.yul\":9239:9244   */\n      dup3\n        /* \"#utility.yul\":9209:9248   */\n      tag_83\n      jump\t// in\n    tag_188:\n        /* \"#utility.yul\":9182:9183   */\n      0x01\n        /* \"#utility.yul\":9175:9180   */\n      dup2\n        /* \"#utility.yul\":9171:9184   */\n      add\n        /* \"#utility.yul\":9162:9184   */\n      swap1\n      pop\n        /* \"#utility.yul\":9138:9258   */\n      jump(tag_185)\n    tag_187:\n        /* \"#utility.yul\":9078:9264   */\n      pop\n      pop\n      jump\t// out\n        /* \"#utility.yul\":9270:9813   */\n    tag_85:\n        /* \"#utility.yul\":9371:9373   */\n      0x1f\n        /* \"#utility.yul\":9366:9369   */\n      dup3\n        /* \"#utility.yul\":9363:9374   */\n      gt\n        /* \"#utility.yul\":9360:9806   */\n      iszero\n      tag_190\n      jumpi\n        /* \"#utility.yul\":9405:9443   */\n      tag_191\n        /* \"#utility.yul\":9437:9442   */\n      dup2\n        /* \"#utility.yul\":9405:9443   */\n      tag_74\n      jump\t// in\n    tag_191:\n        /* \"#utility.yul\":9489:9518   */\n      tag_192\n        /* \"#utility.yul\":9507:9517   */\n      dup5\n        /* \"#utility.yul\":9489:9518   */\n      tag_75\n      jump\t// in\n    tag_192:\n        /* \"#utility.yul\":9479:9487   */\n      dup2\n        /* \"#utility.yul\":9475:9519   */\n      add\n        /* \"#utility.yul\":9672:9674   */\n      0x20\n        /* \"#utility.yul\":9660:9670   */\n      dup6\n        /* \"#utility.yul\":9657:9675   */\n      lt\n        /* \"#utility.yul\":9654:9703   */\n      iszero\n      tag_193\n      jumpi\n        /* \"#utility.yul\":9693:9701   */\n      dup2\n        /* \"#utility.yul\":9678:9701   */\n      swap1\n      pop\n        /* \"#utility.yul\":9654:9703   */\n    tag_193:\n        /* \"#utility.yul\":9716:9796   */\n      tag_194\n        /* \"#utility.yul\":9772:9794   */\n      tag_195\n        /* \"#utility.yul\":9790:9793   */\n      dup6\n        /* \"#utility.yul\":9772:9794   */\n      tag_75\n      jump\t// in\n    tag_195:\n        /* \"#utility.yul\":9762:9770   */\n      dup4\n        /* \"#utility.yul\":9758:9795   */\n      add\n        /* \"#utility.yul\":9745:9756   */\n      dup3\n        /* \"#utility.yul\":9716:9796   */\n      tag_84\n      jump\t// in\n    tag_194:\n        /* \"#utility.yul\":9375:9806   */\n      pop\n      pop\n        /* \"#utility.yul\":9360:9806   */\n    tag_190:\n        /* \"#utility.yul\":9270:9813   */\n      pop\n      pop\n      pop\n      jump\t// out\n        /* \"#utility.yul\":9819:9936   */\n    tag_86:\n        /* \"#utility.yul\":9873:9881   */\n      0x00\n        /* \"#utility.yul\":9923:9928   */\n      dup3\n        /* \"#utility.yul\":9917:9921   */\n      dup3\n        /* \"#utility.yul\":9913:9929   */\n      shr\n        /* \"#utility.yul\":9892:9929   */\n      swap1\n      pop\n        /* \"#utility.yul\":9819:9936   */\n      swap3\n      swap2\n      pop\n      pop\n      jump\t// out\n        /* \"#utility.yul\":9942:10111   */\n    tag_87:\n        /* \"#utility.yul\":9986:9992   */\n      0x00\n        /* \"#utility.yul\":10019:10070   */\n      tag_198\n        /* \"#utility.yul\":10067:10068   */\n      0x00\n        /* \"#utility.yul\":10063:10069   */\n      not\n        /* \"#utility.yul\":10055:10060   */\n      dup5\n        /* \"#utility.yul\":10052:10053   */\n      0x08\n        /* \"#utility.yul\":10048:10061   */\n      mul\n        /* \"#utility.yul\":10019:10070   */\n      tag_86\n      jump\t// in\n    tag_198:\n        /* \"#utility.yul\":10015:10071   */\n      not\n        /* \"#utility.yul\":10100:10104   */\n      dup1\n        /* \"#utility.yul\":10094:10098   */\n      dup4\n        /* \"#utility.yul\":10090:10105   */\n      and\n        /* \"#utility.yul\":10080:10105   */\n      swap2\n      pop\n        /* \"#utility.yul\":9993:10111   */\n      pop\n        /* \"#utility.yul\":9942:10111   */\n      swap3\n      swap2\n      pop\n      pop\n      jump\t// out\n        /* \"#utility.yul\":10116:10411   */\n    tag_88:\n        /* \"#utility.yul\":10192:10196   */\n      0x00\n        /* \"#utility.yul\":10338:10367   */\n      tag_200\n        /* \"#utility.yul\":10363:10366   */\n      dup4\n        /* \"#utility.yul\":10357:10361   */\n      dup4\n        /* \"#utility.yul\":10338:10367   */\n      tag_87\n      jump\t// in\n    tag_200:\n        /* \"#utility.yul\":10330:10367   */\n      swap2\n      pop\n        /* \"#utility.yul\":10400:10403   */\n      dup3\n        /* \"#utility.yul\":10397:10398   */\n      0x02\n        /* \"#utility.yul\":10393:10404   */\n      mul\n        /* \"#utility.yul\":10387:10391   */\n      dup3\n        /* \"#utility.yul\":10384:10405   */\n      or\n        /* \"#utility.yul\":10376:10405   */\n      swap1\n      pop\n        /* \"#utility.yul\":10116:10411   */\n      swap3\n      swap2\n      pop\n      pop\n      jump\t// out\n        /* \"#utility.yul\":10416:11811   */\n    tag_42:\n        /* \"#utility.yul\":10533:10570   */\n      tag_202\n        /* \"#utility.yul\":10566:10569   */\n      dup3\n        /* \"#utility.yul\":10533:10570   */\n      tag_64\n      jump\t// in\n    tag_202:\n        /* \"#utility.yul\":10635:10653   */\n      0xffffffffffffffff\n        /* \"#utility.yul\":10627:10633   */\n      dup2\n        /* \"#utility.yul\":10624:10654   */\n      gt\n        /* \"#utility.yul\":10621:10677   */\n      iszero\n      tag_203\n      jumpi\n        /* \"#utility.yul\":10657:10675   */\n      tag_204\n      tag_73\n      jump\t// in\n    tag_204:\n        /* \"#utility.yul\":10621:10677   */\n    tag_203:\n        /* \"#utility.yul\":10701:10739   */\n      tag_205\n        /* \"#utility.yul\":10733:10737   */\n      dup3\n        /* \"#utility.yul\":10727:10738   */\n      sload\n        /* \"#utility.yul\":10701:10739   */\n      tag_34\n      jump\t// in\n    tag_205:\n        /* \"#utility.yul\":10786:10853   */\n      tag_206\n        /* \"#utility.yul\":10846:10852   */\n      dup3\n        /* \"#utility.yul\":10838:10844   */\n      dup3\n        /* \"#utility.yul\":10832:10836   */\n      dup6\n        /* \"#utility.yul\":10786:10853   */\n      tag_85\n      jump\t// in\n    tag_206:\n        /* \"#utility.yul\":10880:10881   */\n      0x00\n        /* \"#utility.yul\":10904:10908   */\n      0x20\n        /* \"#utility.yul\":10891:10908   */\n      swap1\n      pop\n        /* \"#utility.yul\":10936:10938   */\n      0x1f\n        /* \"#utility.yul\":10928:10934   */\n      dup4\n        /* \"#utility.yul\":10925:10939   */\n      gt\n        /* \"#utility.yul\":10953:10954   */\n      0x01\n        /* \"#utility.yul\":10948:11566   */\n      dup2\n      eq\n      tag_208\n      jumpi\n        /* \"#utility.yul\":11610:11611   */\n      0x00\n        /* \"#utility.yul\":11627:11633   */\n      dup5\n        /* \"#utility.yul\":11624:11701   */\n      iszero\n      tag_209\n      jumpi\n        /* \"#utility.yul\":11676:11685   */\n      dup3\n        /* \"#utility.yul\":11671:11674   */\n      dup8\n        /* \"#utility.yul\":11667:11686   */\n      add\n        /* \"#utility.yul\":11661:11687   */\n      mload\n        /* \"#utility.yul\":11652:11687   */\n      swap1\n      pop\n        /* \"#utility.yul\":11624:11701   */\n    tag_209:\n        /* \"#utility.yul\":11727:11794   */\n      tag_210\n        /* \"#utility.yul\":11787:11793   */\n      dup6\n        /* \"#utility.yul\":11780:11785   */\n      dup3\n        /* \"#utility.yul\":11727:11794   */\n      tag_88\n      jump\t// in\n    tag_210:\n        /* \"#utility.yul\":11721:11725   */\n      dup7\n        /* \"#utility.yul\":11714:11795   */\n      sstore\n        /* \"#utility.yul\":11583:11805   */\n      pop\n        /* \"#utility.yul\":10918:11805   */\n      jump(tag_207)\n        /* \"#utility.yul\":10948:11566   */\n    tag_208:\n        /* \"#utility.yul\":11000:11004   */\n      0x1f\n        /* \"#utility.yul\":10996:11005   */\n      not\n        /* \"#utility.yul\":10988:10994   */\n      dup5\n        /* \"#utility.yul\":10984:11006   */\n      and\n        /* \"#utility.yul\":11034:11071   */\n      tag_211\n        /* \"#utility.yul\":11066:11070   */\n      dup7\n        /* \"#utility.yul\":11034:11071   */\n      tag_74\n      jump\t// in\n    tag_211:\n        /* \"#utility.yul\":11093:11094   */\n      0x00\n        /* \"#utility.yul\":11107:11315   */\n    tag_212:\n        /* \"#utility.yul\":11121:11128   */\n      dup3\n        /* \"#utility.yul\":11118:11119   */\n      dup2\n        /* \"#utility.yul\":11115:11129   */\n      lt\n        /* \"#utility.yul\":11107:11315   */\n      iszero\n      tag_214\n      jumpi\n        /* \"#utility.yul\":11200:11209   */\n      dup5\n        /* \"#utility.yul\":11195:11198   */\n      dup10\n        /* \"#utility.yul\":11191:11210   */\n      add\n        /* \"#utility.yul\":11185:11211   */\n      mload\n        /* \"#utility.yul\":11177:11183   */\n      dup3\n        /* \"#utility.yul\":11170:11212   */\n      sstore\n        /* \"#utility.yul\":11251:11252   */\n      0x01\n        /* \"#utility.yul\":11243:11249   */\n      dup3\n        /* \"#utility.yul\":11239:11253   */\n      add\n        /* \"#utility.yul\":11229:11253   */\n      swap2\n      pop\n        /* \"#utility.yul\":11298:11300   */\n      0x20\n        /* \"#utility.yul\":11287:11296   */\n      dup6\n        /* \"#utility.yul\":11283:11301   */\n      add\n        /* \"#utility.yul\":11270:11301   */\n      swap5\n      pop\n        /* \"#utility.yul\":11144:11148   */\n      0x20\n        /* \"#utility.yul\":11141:11142   */\n      dup2\n        /* \"#utility.yul\":11137:11149   */\n      add\n        /* \"#utility.yul\":11132:11149   */\n      swap1\n      pop\n        /* \"#utility.yul\":11107:11315   */\n      jump(tag_212)\n    tag_214:\n        /* \"#utility.yul\":11343:11349   */\n      dup7\n        /* \"#utility.yul\":11334:11341   */\n      dup4\n        /* \"#utility.yul\":11331:11350   */\n      lt\n        /* \"#utility.yul\":11328:11507   */\n      iszero\n      tag_215\n      jumpi\n        /* \"#utility.yul\":11401:11410   */\n      dup5\n        /* \"#utility.yul\":11396:11399   */\n      dup10\n        /* \"#utility.yul\":11392:11411   */\n      add\n        /* \"#utility.yul\":11386:11412   */\n      mload\n        /* \"#utility.yul\":11444:11492   */\n      tag_216\n        /* \"#utility.yul\":11486:11490   */\n      0x1f\n        /* \"#utility.yul\":11478:11484   */\n      dup10\n        /* \"#utility.yul\":11474:11491   */\n      and\n        /* \"#utility.yul\":11463:11472   */\n      dup3\n        /* \"#utility.yul\":11444:11492   */\n      tag_87\n      jump\t// in\n    tag_216:\n        /* \"#utility.yul\":11436:11442   */\n      dup4\n        /* \"#utility.yul\":11429:11493   */\n      sstore\n        /* \"#utility.yul\":11351:11507   */\n      pop\n        /* \"#utility.yul\":11328:11507   */\n    tag_215:\n        /* \"#utility.yul\":11553:11554   */\n      0x01\n        /* \"#utility.yul\":11549:11550   */\n      0x02\n        /* \"#utility.yul\":11541:11547   */\n      dup9\n        /* \"#utility.yul\":11537:11551   */\n      mul\n        /* \"#utility.yul\":11533:11555   */\n      add\n        /* \"#utility.yul\":11527:11531   */\n      dup9\n        /* \"#utility.yul\":11520:11556   */\n      sstore\n        /* \"#utility.yul\":10955:11566   */\n      pop\n      pop\n      pop\n        /* \"#utility.yul\":10918:11805   */\n    tag_207:\n      pop\n        /* \"#utility.yul\":10508:11811   */\n      pop\n      pop\n      pop\n        /* \"#utility.yul\":10416:11811   */\n      pop\n      pop\n      jump\t// out\n\n    auxdata: 0xa26469706673582212206f7b700a5a894213d136b784187bbd8c11b7b4fc929f73aad81584ed3d51ec1164736f6c634300081a0033\n}\n",
				"bytecode": {
					"linkReferences": {},
					"object": "6080604052348015600e575f80fd5b506109b08061001c5f395ff3fe608060405234801561000f575f80fd5b506004361061004a575f3560e01c806340dcbb081461004e5780639507d39a1461007f578063b6a46b3b146100b0578063bc8bc2b4146100cc575b5f80fd5b610068600480360381019061006391906103bc565b6100fd565b60405161007692919061047f565b60405180910390f35b610099600480360381019061009491906104d4565b61010c565b6040516100a7929190610589565b60405180910390f35b6100ca60048036038101906100c5919061060c565b6101d9565b005b6100e660048036038101906100e191906104d4565b610293565b6040516100f4929190610589565b60405180910390f35b365f8383915091509250929050565b60605f805f848154811061012357610122610657565b5b905f5260205f2090600202019050805f01816001015f9054906101000a900460ff16818054610151906106b1565b80601f016020809104026020016040519081016040528092919081815260200182805461017d906106b1565b80156101c85780601f1061019f576101008083540402835291602001916101c8565b820191905f5260205f20905b8154815290600101906020018083116101ab57829003601f168201915b505050505091509250925050915091565b5f604051806040016040528084848080601f0160208091040260200160405190810160405280939291908181526020018383808284375f81840152601f19601f8201169050808301925050505050505081526020015f1515815250908060018154018082558091505060019003905f5260205f2090600202015f909190919091505f820151815f01908161026d91906108ab565b506020820151816001015f6101000a81548160ff02191690831515021790555050505050565b5f81815481106102a1575f80fd5b905f5260205f2090600202015f91509050805f0180546102c0906106b1565b80601f01602080910402602001604051908101604052809291908181526020018280546102ec906106b1565b80156103375780601f1061030e57610100808354040283529160200191610337565b820191905f5260205f20905b81548152906001019060200180831161031a57829003601f168201915b505050505090806001015f9054906101000a900460ff16905082565b5f80fd5b5f80fd5b5f80fd5b5f80fd5b5f80fd5b5f8083601f84011261037c5761037b61035b565b5b8235905067ffffffffffffffff8111156103995761039861035f565b5b6020830191508360208202830111156103b5576103b4610363565b5b9250929050565b5f80602083850312156103d2576103d1610353565b5b5f83013567ffffffffffffffff8111156103ef576103ee610357565b5b6103fb85828601610367565b92509250509250929050565b5f82825260208201905092915050565b5f80fd5b82818337505050565b5f61042f8385610407565b93507f07ffffffffffffffffffffffffffffffffffffffffffffffffffffffffffffff83111561046257610461610417565b5b60208302925061047383858461041b565b82840190509392505050565b5f6020820190508181035f830152610498818486610424565b90509392505050565b5f819050919050565b6104b3816104a1565b81146104bd575f80fd5b50565b5f813590506104ce816104aa565b92915050565b5f602082840312156104e9576104e8610353565b5b5f6104f6848285016104c0565b91505092915050565b5f81519050919050565b5f82825260208201905092915050565b8281835e5f83830152505050565b5f601f19601f8301169050919050565b5f610541826104ff565b61054b8185610509565b935061055b818560208601610519565b61056481610527565b840191505092915050565b5f8115159050919050565b6105838161056f565b82525050565b5f6040820190508181035f8301526105a18185610537565b90506105b0602083018461057a565b9392505050565b5f8083601f8401126105cc576105cb61035b565b5b8235905067ffffffffffffffff8111156105e9576105e861035f565b5b60208301915083600182028301111561060557610604610363565b5b9250929050565b5f806020838503121561062257610621610353565b5b5f83013567ffffffffffffffff81111561063f5761063e610357565b5b61064b858286016105b7565b92509250509250929050565b7f4e487b71000000000000000000000000000000000000000000000000000000005f52603260045260245ffd5b7f4e487b71000000000000000000000000000000000000000000000000000000005f52602260045260245ffd5b5f60028204905060018216806106c857607f821691505b6020821081036106db576106da610684565b5b50919050565b7f4e487b71000000000000000000000000000000000000000000000000000000005f52604160045260245ffd5b5f819050815f5260205f209050919050565b5f6020601f8301049050919050565b5f82821b905092915050565b5f6008830261076a7fffffffffffffffffffffffffffffffffffffffffffffffffffffffffffffffff8261072f565b610774868361072f565b95508019841693508086168417925050509392505050565b5f819050919050565b5f6107af6107aa6107a5846104a1565b61078c565b6104a1565b9050919050565b5f819050919050565b6107c883610795565b6107dc6107d4826107b6565b84845461073b565b825550505050565b5f90565b6107f06107e4565b6107fb8184846107bf565b505050565b5b8181101561081e576108135f826107e8565b600181019050610801565b5050565b601f821115610863576108348161070e565b61083d84610720565b8101602085101561084c578190505b61086061085885610720565b830182610800565b50505b505050565b5f82821c905092915050565b5f6108835f1984600802610868565b1980831691505092915050565b5f61089b8383610874565b9150826002028217905092915050565b6108b4826104ff565b67ffffffffffffffff8111156108cd576108cc6106e1565b5b6108d782546106b1565b6108e2828285610822565b5f60209050601f831160018114610913575f8415610901578287015190505b61090b8582610890565b865550610972565b601f1984166109218661070e565b5f5b8281101561094857848901518255600182019150602085019450602081019050610923565b868310156109655784890151610961601f891682610874565b8355505b6001600288020188555050505b50505050505056fea26469706673582212206f7b700a5a894213d136b784187bbd8c11b7b4fc929f73aad81584ed3d51ec1164736f6c634300081a0033",
					"opcodes": "PUSH1 0x80 PUSH1 0x40 MSTORE CALLVALUE DUP1 ISZERO PUSH1 0xE JUMPI PUSH0 DUP1 REVERT JUMPDEST POP PUSH2 0x9B0 DUP1 PUSH2 0x1C PUSH0 CODECOPY PUSH0 RETURN INVALID PUSH1 0x80 PUSH1 0x40 MSTORE CALLVALUE DUP1 ISZERO PUSH2 0xF JUMPI PUSH0 DUP1 REVERT JUMPDEST POP PUSH1 0x4 CALLDATASIZE LT PUSH2 0x4A JUMPI PUSH0 CALLDATALOAD PUSH1 0xE0 SHR DUP1 PUSH4 0x40DCBB08 EQ PUSH2 0x4E JUMPI DUP1 PUSH4 0x9507D39A EQ PUSH2 0x7F JUMPI DUP1 PUSH4 0xB6A46B3B EQ PUSH2 0xB0 JUMPI DUP1 PUSH4 0xBC8BC2B4 EQ PUSH2 0xCC JUMPI JUMPDEST PUSH0 DUP1 REVERT JUMPDEST PUSH2 0x68 PUSH1 0x4 DUP1 CALLDATASIZE SUB DUP2 ADD SWAP1 PUSH2 0x63 SWAP2 SWAP1 PUSH2 0x3BC JUMP JUMPDEST PUSH2 0xFD JUMP JUMPDEST PUSH1 0x40 MLOAD PUSH2 0x76 SWAP3 SWAP2 SWAP1 PUSH2 0x47F JUMP JUMPDEST PUSH1 0x40 MLOAD DUP1 SWAP2 SUB SWAP1 RETURN JUMPDEST PUSH2 0x99 PUSH1 0x4 DUP1 CALLDATASIZE SUB DUP2 ADD SWAP1 PUSH2 0x94 SWAP2 SWAP1 PUSH2 0x4D4 JUMP JUMPDEST PUSH2 0x10C JUMP JUMPDEST PUSH1 0x40 MLOAD PUSH2 0xA7 SWAP3 SWAP2 SWAP1 PUSH2 0x589 JUMP JUMPDEST PUSH1 0x40 MLOAD DUP1 SWAP2 SUB SWAP1 RETURN JUMPDEST PUSH2 0xCA PUSH1 0x4 DUP1 CALLDATASIZE SUB DUP2 ADD SWAP1 PUSH2 0xC5 SWAP2 SWAP1 PUSH2 0x60C JUMP JUMPDEST PUSH2 0x1D9 JUMP JUMPDEST STOP JUMPDEST PUSH2 0xE6 PUSH1 0x4 DUP1 CALLDATASIZE SUB DUP2 ADD SWAP1 PUSH2 0xE1 SWAP2 SWAP1 PUSH2 0x4D4 JUMP JUMPDEST PUSH2 0x293 JUMP JUMPDEST PUSH1 0x40 MLOAD PUSH2 0xF4 SWAP3 SWAP2 SWAP1 PUSH2 0x589 JUMP JUMPDEST PUSH1 0x40 MLOAD DUP1 SWAP2 SUB SWAP1 RETURN JUMPDEST CALLDATASIZE PUSH0 DUP4 DUP4 SWAP2 POP SWAP2 POP SWAP3 POP SWAP3 SWAP1 POP JUMP JUMPDEST PUSH1 0x60 PUSH0 DUP1 PUSH0 DUP5 DUP2 SLOAD DUP2 LT PUSH2 0x123 JUMPI PUSH2 0x122 PUSH2 0x657 JUMP JUMPDEST JUMPDEST SWAP1 PUSH0 MSTORE PUSH1 0x20 PUSH0 KECCAK256 SWAP1 PUSH1 0x2 MUL ADD SWAP1 POP DUP1 PUSH0 ADD DUP2 PUSH1 0x1 ADD PUSH0 SWAP1 SLOAD SWAP1 PUSH2 0x100 EXP SWAP1 DIV PUSH1 0xFF AND DUP2 DUP1 SLOAD PUSH2 0x151 SWAP1 PUSH2 0x6B1 JUMP JUMPDEST DUP1 PUSH1 0x1F ADD PUSH1 0x20 DUP1 SWAP2 DIV MUL PUSH1 0x20 ADD PUSH1 0x40 MLOAD SWAP1 DUP2 ADD PUSH1 0x40 MSTORE DUP1 SWAP3 SWAP2 SWAP1 DUP2 DUP2 MSTORE PUSH1 0x20 ADD DUP3 DUP1 SLOAD PUSH2 0x17D SWAP1 PUSH2 0x6B1 JUMP JUMPDEST DUP1 ISZERO PUSH2 0x1C8 JUMPI DUP1 PUSH1 0x1F LT PUSH2 0x19F JUMPI PUSH2 0x100 DUP1 DUP4 SLOAD DIV MUL DUP4 MSTORE SWAP2 PUSH1 0x20 ADD SWAP2 PUSH2 0x1C8 JUMP JUMPDEST DUP3 ADD SWAP2 SWAP1 PUSH0 MSTORE PUSH1 0x20 PUSH0 KECCAK256 SWAP1 JUMPDEST DUP2 SLOAD DUP2 MSTORE SWAP1 PUSH1 0x1 ADD SWAP1 PUSH1 0x20 ADD DUP1 DUP4 GT PUSH2 0x1AB JUMPI DUP3 SWAP1 SUB PUSH1 0x1F AND DUP3 ADD SWAP2 JUMPDEST POP POP POP POP POP SWAP2 POP SWAP3 POP SWAP3 POP POP SWAP2 POP SWAP2 JUMP JUMPDEST PUSH0 PUSH1 0x40 MLOAD DUP1 PUSH1 0x40 ADD PUSH1 0x40 MSTORE DUP1 DUP5 DUP5 DUP1 DUP1 PUSH1 0x1F ADD PUSH1 0x20 DUP1 SWAP2 DIV MUL PUSH1 0x20 ADD PUSH1 0x40 MLOAD SWAP1 DUP2 ADD PUSH1 0x40 MSTORE DUP1 SWAP4 SWAP3 SWAP2 SWAP1 DUP2 DUP2 MSTORE PUSH1 0x20 ADD DUP4 DUP4 DUP1 DUP3 DUP5 CALLDATACOPY PUSH0 DUP2 DUP5 ADD MSTORE PUSH1 0x1F NOT PUSH1 0x1F DUP3 ADD AND SWAP1 POP DUP1 DUP4 ADD SWAP3 POP POP POP POP POP POP POP DUP2 MSTORE PUSH1 0x20 ADD PUSH0 ISZERO ISZERO DUP2 MSTORE POP SWAP1 DUP1 PUSH1 0x1 DUP2 SLOAD ADD DUP1 DUP3 SSTORE DUP1 SWAP2 POP POP PUSH1 0x1 SWAP1 SUB SWAP1 PUSH0 MSTORE PUSH1 0x20 PUSH0 KECCAK256 SWAP1 PUSH1 0x2 MUL ADD PUSH0 SWAP1 SWAP2 SWAP1 SWAP2 SWAP1 SWAP2 POP PUSH0 DUP3 ADD MLOAD DUP2 PUSH0 ADD SWAP1 DUP2 PUSH2 0x26D SWAP2 SWAP1 PUSH2 0x8AB JUMP JUMPDEST POP PUSH1 0x20 DUP3 ADD MLOAD DUP2 PUSH1 0x1 ADD PUSH0 PUSH2 0x100 EXP DUP2 SLOAD DUP2 PUSH1 0xFF MUL NOT AND SWAP1 DUP4 ISZERO ISZERO MUL OR SWAP1 SSTORE POP POP POP POP POP JUMP JUMPDEST PUSH0 DUP2 DUP2 SLOAD DUP2 LT PUSH2 0x2A1 JUMPI PUSH0 DUP1 REVERT JUMPDEST SWAP1 PUSH0 MSTORE PUSH1 0x20 PUSH0 KECCAK256 SWAP1 PUSH1 0x2 MUL ADD PUSH0 SWAP2 POP SWAP1 POP DUP1 PUSH0 ADD DUP1 SLOAD PUSH2 0x2C0 SWAP1 PUSH2 0x6B1 JUMP JUMPDEST DUP1 PUSH1 0x1F ADD PUSH1 0x20 DUP1 SWAP2 DIV MUL PUSH1 0x20 ADD PUSH1 0x40 MLOAD SWAP1 DUP2 ADD PUSH1 0x40 MSTORE DUP1 SWAP3 SWAP2 SWAP1 DUP2 DUP2 MSTORE PUSH1 0x20 ADD DUP3 DUP1 SLOAD PUSH2 0x2EC SWAP1 PUSH2 0x6B1 JUMP JUMPDEST DUP1 ISZERO PUSH2 0x337 JUMPI DUP1 PUSH1 0x1F LT PUSH2 0x30E JUMPI PUSH2 0x100 DUP1 DUP4 SLOAD DIV MUL DUP4 MSTORE SWAP2 PUSH1 0x20 ADD SWAP2 PUSH2 0x337 JUMP JUMPDEST DUP3 ADD SWAP2 SWAP1 PUSH0 MSTORE PUSH1 0x20 PUSH0 KECCAK256 SWAP1 JUMPDEST DUP2 SLOAD DUP2 MSTORE SWAP1 PUSH1 0x1 ADD SWAP1 PUSH1 0x20 ADD DUP1 DUP4 GT PUSH2 0x31A JUMPI DUP3 SWAP1 SUB PUSH1 0x1F AND DUP3 ADD SWAP2 JUMPDEST POP POP POP POP POP SWAP1 DUP1 PUSH1 0x1 ADD PUSH0 SWAP1 SLOAD SWAP1 PUSH2 0x100 EXP SWAP1 DIV PUSH1 0xFF AND SWAP1 POP DUP3 JUMP JUMPDEST PUSH0 DUP1 REVERT JUMPDEST PUSH0 DUP1 REVERT JUMPDEST PUSH0 DUP1 REVERT JUMPDEST PUSH0 DUP1 REVERT JUMPDEST PUSH0 DUP1 REVERT JUMPDEST PUSH0 DUP1 DUP4 PUSH1 0x1F DUP5 ADD SLT PUSH2 0x37C JUMPI PUSH2 0x37B PUSH2 0x35B JUMP JUMPDEST JUMPDEST DUP3 CALLDATALOAD SWAP1 POP PUSH8 0xFFFFFFFFFFFFFFFF DUP2 GT ISZERO PUSH2 0x399 JUMPI PUSH2 0x398 PUSH2 0x35F JUMP JUMPDEST JUMPDEST PUSH1 0x20 DUP4 ADD SWAP2 POP DUP4 PUSH1 0x20 DUP3 MUL DUP4 ADD GT ISZERO PUSH2 0x3B5 JUMPI PUSH2 0x3B4 PUSH2 0x363 JUMP JUMPDEST JUMPDEST SWAP3 POP SWAP3 SWAP1 POP JUMP JUMPDEST PUSH0 DUP1 PUSH1 0x20 DUP4 DUP6 SUB SLT ISZERO PUSH2 0x3D2 JUMPI PUSH2 0x3D1 PUSH2 0x353 JUMP JUMPDEST JUMPDEST PUSH0 DUP4 ADD CALLDATALOAD PUSH8 0xFFFFFFFFFFFFFFFF DUP2 GT ISZERO PUSH2 0x3EF JUMPI PUSH2 0x3EE PUSH2 0x357 JUMP JUMPDEST JUMPDEST PUSH2 0x3FB DUP6 DUP3 DUP7 ADD PUSH2 0x367 JUMP JUMPDEST SWAP3 POP SWAP3 POP POP SWAP3 POP SWAP3 SWAP1 POP JUMP JUMPDEST PUSH0 DUP3 DUP3 MSTORE PUSH1 0x20 DUP3 ADD SWAP1 POP SWAP3 SWAP2 POP POP JUMP JUMPDEST PUSH0 DUP1 REVERT JUMPDEST DUP3 DUP2 DUP4 CALLDATACOPY POP POP POP JUMP JUMPDEST PUSH0 PUSH2 0x42F DUP4 DUP6 PUSH2 0x407 JUMP JUMPDEST SWAP4 POP PUSH32 0x7FFFFFFFFFFFFFFFFFFFFFFFFFFFFFFFFFFFFFFFFFFFFFFFFFFFFFFFFFFFFFF DUP4 GT ISZERO PUSH2 0x462 JUMPI PUSH2 0x461 PUSH2 0x417 JUMP JUMPDEST JUMPDEST PUSH1 0x20 DUP4 MUL SWAP3 POP PUSH2 0x473 DUP4 DUP6 DUP5 PUSH2 0x41B JUMP JUMPDEST DUP3 DUP5 ADD SWAP1 POP SWAP4 SWAP3 POP POP POP JUMP JUMPDEST PUSH0 PUSH1 0x20 DUP3 ADD SWAP1 POP DUP2 DUP2 SUB PUSH0 DUP4 ADD MSTORE PUSH2 0x498 DUP2 DUP5 DUP7 PUSH2 0x424 JUMP JUMPDEST SWAP1 POP SWAP4 SWAP3 POP POP POP JUMP JUMPDEST PUSH0 DUP2 SWAP1 POP SWAP2 SWAP1 POP JUMP JUMPDEST PUSH2 0x4B3 DUP2 PUSH2 0x4A1 JUMP JUMPDEST DUP2 EQ PUSH2 0x4BD JUMPI PUSH0 DUP1 REVERT JUMPDEST POP JUMP JUMPDEST PUSH0 DUP2 CALLDATALOAD SWAP1 POP PUSH2 0x4CE DUP2 PUSH2 0x4AA JUMP JUMPDEST SWAP3 SWAP2 POP POP JUMP JUMPDEST PUSH0 PUSH1 0x20 DUP3 DUP5 SUB SLT ISZERO PUSH2 0x4E9 JUMPI PUSH2 0x4E8 PUSH2 0x353 JUMP JUMPDEST JUMPDEST PUSH0 PUSH2 0x4F6 DUP5 DUP3 DUP6 ADD PUSH2 0x4C0 JUMP JUMPDEST SWAP2 POP POP SWAP3 SWAP2 POP POP JUMP JUMPDEST PUSH0 DUP2 MLOAD SWAP1 POP SWAP2 SWAP1 POP JUMP JUMPDEST PUSH0 DUP3 DUP3 MSTORE PUSH1 0x20 DUP3 ADD SWAP1 POP SWAP3 SWAP2 POP POP JUMP JUMPDEST DUP3 DUP2 DUP4 MCOPY PUSH0 DUP4 DUP4 ADD MSTORE POP POP POP JUMP JUMPDEST PUSH0 PUSH1 0x1F NOT PUSH1 0x1F DUP4 ADD AND SWAP1 POP SWAP2 SWAP1 POP JUMP JUMPDEST PUSH0 PUSH2 0x541 DUP3 PUSH2 0x4FF JUMP JUMPDEST PUSH2 0x54B DUP2 DUP6 PUSH2 0x509 JUMP JUMPDEST SWAP4 POP PUSH2 0x55B DUP2 DUP6 PUSH1 0x20 DUP7 ADD PUSH2 0x519 JUMP JUMPDEST PUSH2 0x564 DUP2 PUSH2 0x527 JUMP JUMPDEST DUP5 ADD SWAP2 POP POP SWAP3 SWAP2 POP POP JUMP JUMPDEST PUSH0 DUP2 ISZERO ISZERO SWAP1 POP SWAP2 SWAP1 POP JUMP JUMPDEST PUSH2 0x583 DUP2 PUSH2 0x56F JUMP JUMPDEST DUP3 MSTORE POP POP JUMP JUMPDEST PUSH0 PUSH1 0x40 DUP3 ADD SWAP1 POP DUP2 DUP2 SUB PUSH0 DUP4 ADD MSTORE PUSH2 0x5A1 DUP2 DUP6 PUSH2 0x537 JUMP JUMPDEST SWAP1 POP PUSH2 0x5B0 PUSH1 0x20 DUP4 ADD DUP5 PUSH2 0x57A JUMP JUMPDEST SWAP4 SWAP3 POP POP POP JUMP JUMPDEST PUSH0 DUP1 DUP4 PUSH1 0x1F DUP5 ADD SLT PUSH2 0x5CC JUMPI PUSH2 0x5CB PUSH2 0x35B JUMP JUMPDEST JUMPDEST DUP3 CALLDATALOAD SWAP1 POP PUSH8 0xFFFFFFFFFFFFFFFF DUP2 GT ISZERO PUSH2 0x5E9 JUMPI PUSH2 0x5E8 PUSH2 0x35F JUMP JUMPDEST JUMPDEST PUSH1 0x20 DUP4 ADD SWAP2 POP DUP4 PUSH1 0x1 DUP3 MUL DUP4 ADD GT ISZERO PUSH2 0x605 JUMPI PUSH2 0x604 PUSH2 0x363 JUMP JUMPDEST JUMPDEST SWAP3 POP SWAP3 SWAP1 POP JUMP JUMPDEST PUSH0 DUP1 PUSH1 0x20 DUP4 DUP6 SUB SLT ISZERO PUSH2 0x622 JUMPI PUSH2 0x621 PUSH2 0x353 JUMP JUMPDEST JUMPDEST PUSH0 DUP4 ADD CALLDATALOAD PUSH8 0xFFFFFFFFFFFFFFFF DUP2 GT ISZERO PUSH2 0x63F JUMPI PUSH2 0x63E PUSH2 0x357 JUMP JUMPDEST JUMPDEST PUSH2 0x64B DUP6 DUP3 DUP7 ADD PUSH2 0x5B7 JUMP JUMPDEST SWAP3 POP SWAP3 POP POP SWAP3 POP SWAP3 SWAP1 POP JUMP JUMPDEST PUSH32 0x4E487B7100000000000000000000000000000000000000000000000000000000 PUSH0 MSTORE PUSH1 0x32 PUSH1 0x4 MSTORE PUSH1 0x24 PUSH0 REVERT JUMPDEST PUSH32 0x4E487B7100000000000000000000000000000000000000000000000000000000 PUSH0 MSTORE PUSH1 0x22 PUSH1 0x4 MSTORE PUSH1 0x24 PUSH0 REVERT JUMPDEST PUSH0 PUSH1 0x2 DUP3 DIV SWAP1 POP PUSH1 0x1 DUP3 AND DUP1 PUSH2 0x6C8 JUMPI PUSH1 0x7F DUP3 AND SWAP2 POP JUMPDEST PUSH1 0x20 DUP3 LT DUP2 SUB PUSH2 0x6DB JUMPI PUSH2 0x6DA PUSH2 0x684 JUMP JUMPDEST JUMPDEST POP SWAP2 SWAP1 POP JUMP JUMPDEST PUSH32 0x4E487B7100000000000000000000000000000000000000000000000000000000 PUSH0 MSTORE PUSH1 0x41 PUSH1 0x4 MSTORE PUSH1 0x24 PUSH0 REVERT JUMPDEST PUSH0 DUP2 SWAP1 POP DUP2 PUSH0 MSTORE PUSH1 0x20 PUSH0 KECCAK256 SWAP1 POP SWAP2 SWAP1 POP JUMP JUMPDEST PUSH0 PUSH1 0x20 PUSH1 0x1F DUP4 ADD DIV SWAP1 POP SWAP2 SWAP1 POP JUMP JUMPDEST PUSH0 DUP3 DUP3 SHL SWAP1 POP SWAP3 SWAP2 POP POP JUMP JUMPDEST PUSH0 PUSH1 0x8 DUP4 MUL PUSH2 0x76A PUSH32 0xFFFFFFFFFFFFFFFFFFFFFFFFFFFFFFFFFFFFFFFFFFFFFFFFFFFFFFFFFFFFFFFF DUP3 PUSH2 0x72F JUMP JUMPDEST PUSH2 0x774 DUP7 DUP4 PUSH2 0x72F JUMP JUMPDEST SWAP6 POP DUP1 NOT DUP5 AND SWAP4 POP DUP1 DUP7 AND DUP5 OR SWAP3 POP POP POP SWAP4 SWAP3 POP POP POP JUMP JUMPDEST PUSH0 DUP2 SWAP1 POP SWAP2 SWAP1 POP JUMP JUMPDEST PUSH0 PUSH2 0x7AF PUSH2 0x7AA PUSH2 0x7A5 DUP5 PUSH2 0x4A1 JUMP JUMPDEST PUSH2 0x78C JUMP JUMPDEST PUSH2 0x4A1 JUMP JUMPDEST SWAP1 POP SWAP2 SWAP1 POP JUMP JUMPDEST PUSH0 DUP2 SWAP1 POP SWAP2 SWAP1 POP JUMP JUMPDEST PUSH2 0x7C8 DUP4 PUSH2 0x795 JUMP JUMPDEST PUSH2 0x7DC PUSH2 0x7D4 DUP3 PUSH2 0x7B6 JUMP JUMPDEST DUP5 DUP5 SLOAD PUSH2 0x73B JUMP JUMPDEST DUP3 SSTORE POP POP POP POP JUMP JUMPDEST PUSH0 SWAP1 JUMP JUMPDEST PUSH2 0x7F0 PUSH2 0x7E4 JUMP JUMPDEST PUSH2 0x7FB DUP2 DUP5 DUP5 PUSH2 0x7BF JUMP JUMPDEST POP POP POP JUMP JUMPDEST JUMPDEST DUP2 DUP2 LT ISZERO PUSH2 0x81E JUMPI PUSH2 0x813 PUSH0 DUP3 PUSH2 0x7E8 JUMP JUMPDEST PUSH1 0x1 DUP2 ADD SWAP1 POP PUSH2 0x801 JUMP JUMPDEST POP POP JUMP JUMPDEST PUSH1 0x1F DUP3 GT ISZERO PUSH2 0x863 JUMPI PUSH2 0x834 DUP2 PUSH2 0x70E JUMP JUMPDEST PUSH2 0x83D DUP5 PUSH2 0x720 JUMP JUMPDEST DUP2 ADD PUSH1 0x20 DUP6 LT ISZERO PUSH2 0x84C JUMPI DUP2 SWAP1 POP JUMPDEST PUSH2 0x860 PUSH2 0x858 DUP6 PUSH2 0x720 JUMP JUMPDEST DUP4 ADD DUP3 PUSH2 0x800 JUMP JUMPDEST POP POP JUMPDEST POP POP POP JUMP JUMPDEST PUSH0 DUP3 DUP3 SHR SWAP1 POP SWAP3 SWAP2 POP POP JUMP JUMPDEST PUSH0 PUSH2 0x883 PUSH0 NOT DUP5 PUSH1 0x8 MUL PUSH2 0x868 JUMP JUMPDEST NOT DUP1 DUP4 AND SWAP2 POP POP SWAP3 SWAP2 POP POP JUMP JUMPDEST PUSH0 PUSH2 0x89B DUP4 DUP4 PUSH2 0x874 JUMP JUMPDEST SWAP2 POP DUP3 PUSH1 0x2 MUL DUP3 OR SWAP1 POP SWAP3 SWAP2 POP POP JUMP JUMPDEST PUSH2 0x8B4 DUP3 PUSH2 0x4FF JUMP JUMPDEST PUSH8 0xFFFFFFFFFFFFFFFF DUP2 GT ISZERO PUSH2 0x8CD JUMPI PUSH2 0x8CC PUSH2 0x6E1 JUMP JUMPDEST JUMPDEST PUSH2 0x8D7 DUP3 SLOAD PUSH2 0x6B1 JUMP JUMPDEST PUSH2 0x8E2 DUP3 DUP3 DUP6 PUSH2 0x822 JUMP JUMPDEST PUSH0 PUSH1 0x20 SWAP1 POP PUSH1 0x1F DUP4 GT PUSH1 0x1 DUP2 EQ PUSH2 0x913 JUMPI PUSH0 DUP5 ISZERO PUSH2 0x901 JUMPI DUP3 DUP8 ADD MLOAD SWAP1 POP JUMPDEST PUSH2 0x90B DUP6 DUP3 PUSH2 0x890 JUMP JUMPDEST DUP7 SSTORE POP PUSH2 0x972 JUMP JUMPDEST PUSH1 0x1F NOT DUP5 AND PUSH2 0x921 DUP7 PUSH2 0x70E JUMP JUMPDEST PUSH0 JUMPDEST DUP3 DUP2 LT ISZERO PUSH2 0x948 JUMPI DUP5 DUP10 ADD MLOAD DUP3 SSTORE PUSH1 0x1 DUP3 ADD SWAP2 POP PUSH1 0x20 DUP6 ADD SWAP5 POP PUSH1 0x20 DUP2 ADD SWAP1 POP PUSH2 0x923 JUMP JUMPDEST DUP7 DUP4 LT ISZERO PUSH2 0x965 JUMPI DUP5 DUP10 ADD MLOAD PUSH2 0x961 PUSH1 0x1F DUP10 AND DUP3 PUSH2 0x874 JUMP JUMPDEST DUP4 SSTORE POP JUMPDEST PUSH1 0x1 PUSH1 0x2 DUP9 MUL ADD DUP9 SSTORE POP POP POP JUMPDEST POP POP POP POP POP POP JUMP INVALID LOG2 PUSH5 0x6970667358 0x22 SLT KECCAK256 PUSH16 0x7B700A5A894213D136B784187BBD8C11 0xB7 0xB4 0xFC SWAP3 SWAP16 PUSH20 0xAAD81584ED3D51EC1164736F6C634300081A0033 "
				},
				"gasEstimates": {
					"creation": {
						"codeDepositCost": "496000",
						"executionCost": "528",
						"totalCost": "496528"
					},
					"external": {
						"create(string)": "infinite",
						"get(uint256)": "infinite",
						"h(uint256[])": "infinite",
						"todos(uint256)": "infinite"
					}
				},
				"methodIdentifiers": {
					"create(string)": "b6a46b3b",
					"get(uint256)": "9507d39a",
					"h(uint256[])": "40dcbb08",
					"todos(uint256)": "bc8bc2b4"
				}
			},
			"storageLayout": {
				"storage": [
					{
						"astId": 10,
						"contract": "contracts/Struct.sol:Struct",
						"label": "todos",
						"offset": 0,
						"slot": "0",
						"type": "t_array(t_struct(Todo)6_storage)dyn_storage"
					}
				],
				"types": {
					"t_array(t_struct(Todo)6_storage)dyn_storage": {
						"base": "t_struct(Todo)6_storage",
						"encoding": "dynamic_array",
						"label": "struct Struct.Todo[]",
						"numberOfBytes": "32"
					},
					"t_bool": {
						"encoding": "inplace",
						"label": "bool",
						"numberOfBytes": "1"
					},
					"t_string_storage": {
						"encoding": "bytes",
						"label": "string",
						"numberOfBytes": "32"
					},
					"t_struct(Todo)6_storage": {
						"encoding": "inplace",
						"label": "struct Struct.Todo",
						"members": [
							{
								"astId": 3,
								"contract": "contracts/Struct.sol:Struct",
								"label": "text",
								"offset": 0,
								"slot": "0",
								"type": "t_string_storage"
							},
							{
								"astId": 5,
								"contract": "contracts/Struct.sol:Struct",
								"label": "compoluted",
								"offset": 0,
								"slot": "1",
								"type": "t_bool"
							}
						],
						"numberOfBytes": "64"
					}
				}
			},
			"userdoc": {
				"kind": "user",
				"methods": {},
				"version": 1
			}
		}
	}
}